{"abi":[{"type":"constructor","inputs":[],"stateMutability":"nonpayable"},{"type":"function","name":"balanceOf","inputs":[{"name":"","type":"address","internalType":"address"}],"outputs":[{"name":"","type":"uint256","internalType":"uint256"}],"stateMutability":"view"},{"type":"function","name":"deposit","inputs":[],"outputs":[],"stateMutability":"payable"},{"type":"function","name":"getBalance","inputs":[],"outputs":[{"name":"","type":"uint256","internalType":"uint256"}],"stateMutability":"view"},{"type":"function","name":"owner","inputs":[],"outputs":[{"name":"","type":"address","internalType":"address"}],"stateMutability":"view"},{"type":"function","name":"renounceOwnership","inputs":[],"outputs":[],"stateMutability":"nonpayable"},{"type":"function","name":"transferOwnership","inputs":[{"name":"newOwner","type":"address","internalType":"address"}],"outputs":[],"stateMutability":"nonpayable"},{"type":"function","name":"withdraw","inputs":[{"name":"amount","type":"uint256","internalType":"uint256"}],"outputs":[],"stateMutability":"nonpayable"},{"type":"event","name":"FundsDeposited","inputs":[{"name":"sender","type":"address","indexed":true,"internalType":"address"},{"name":"amount","type":"uint256","indexed":false,"internalType":"uint256"}],"anonymous":false},{"type":"event","name":"FundsWithdrawn","inputs":[{"name":"receiver","type":"address","indexed":true,"internalType":"address"},{"name":"amount","type":"uint256","indexed":false,"internalType":"uint256"}],"anonymous":false},{"type":"event","name":"OwnershipTransferred","inputs":[{"name":"previousOwner","type":"address","indexed":true,"internalType":"address"},{"name":"newOwner","type":"address","indexed":true,"internalType":"address"}],"anonymous":false},{"type":"error","name":"OwnableInvalidOwner","inputs":[{"name":"owner","type":"address","internalType":"address"}]},{"type":"error","name":"OwnableUnauthorizedAccount","inputs":[{"name":"account","type":"address","internalType":"address"}]}],"bytecode":{"object":"0x608060405234801561000f575f80fd5b50335f73ffffffffffffffffffffffffffffffffffffffff168173ffffffffffffffffffffffffffffffffffffffff1603610081575f6040517f1e4fbdf70000000000000000000000000000000000000000000000000000000081526004016100789190610196565b60405180910390fd5b6100908161009660201b60201c565b506101af565b5f805f9054906101000a900473ffffffffffffffffffffffffffffffffffffffff169050815f806101000a81548173ffffffffffffffffffffffffffffffffffffffff021916908373ffffffffffffffffffffffffffffffffffffffff1602179055508173ffffffffffffffffffffffffffffffffffffffff168173ffffffffffffffffffffffffffffffffffffffff167f8be0079c531659141344cd1fd0a4f28419497f9722a3daafe3b4186f6b6457e060405160405180910390a35050565b5f73ffffffffffffffffffffffffffffffffffffffff82169050919050565b5f61018082610157565b9050919050565b61019081610176565b82525050565b5f6020820190506101a95f830184610187565b92915050565b610ac6806101bc5f395ff3fe60806040526004361061006f575f3560e01c8063715018a61161004d578063715018a6146101015780638da5cb5b14610117578063d0e30db014610141578063f2fde38b1461014b5761006f565b806312065fe0146100735780632e1a7d4d1461009d57806370a08231146100c5575b5f80fd5b34801561007e575f80fd5b50610087610173565b60405161009491906106ed565b60405180910390f35b3480156100a8575f80fd5b506100c360048036038101906100be9190610734565b6101b7565b005b3480156100d0575f80fd5b506100eb60048036038101906100e691906107b9565b6103ce565b6040516100f891906106ed565b60405180910390f35b34801561010c575f80fd5b506101156103e3565b005b348015610122575f80fd5b5061012b6103f6565b60405161013891906107f3565b60405180910390f35b61014961041d565b005b348015610156575f80fd5b50610171600480360381019061016c91906107b9565b610502565b005b5f60015f3373ffffffffffffffffffffffffffffffffffffffff1673ffffffffffffffffffffffffffffffffffffffff1681526020019081526020015f2054905090565b6101bf610586565b5f8111610201576040517f08c379a00000000000000000000000000000000000000000000000000000000081526004016101f890610866565b60405180910390fd5b8060015f3373ffffffffffffffffffffffffffffffffffffffff1673ffffffffffffffffffffffffffffffffffffffff1681526020019081526020015f20541015610281576040517f08c379a0000000000000000000000000000000000000000000000000000000008152600401610278906108ce565b60405180910390fd5b8060015f3373ffffffffffffffffffffffffffffffffffffffff1673ffffffffffffffffffffffffffffffffffffffff1681526020019081526020015f205f8282546102cd9190610919565b925050819055505f3373ffffffffffffffffffffffffffffffffffffffff16826040516102f990610979565b5f6040518083038185875af1925050503d805f8114610333576040519150601f19603f3d011682016040523d82523d5f602084013e610338565b606091505b505090508061037c576040517f08c379a0000000000000000000000000000000000000000000000000000000008152600401610373906109d7565b60405180910390fd5b3373ffffffffffffffffffffffffffffffffffffffff167feaff4b37086828766ad3268786972c0cd24259d4c87a80f9d3963a3c3d999b0d836040516103c291906106ed565b60405180910390a25050565b6001602052805f5260405f205f915090505481565b6103eb610586565b6103f45f61060d565b565b5f805f9054906101000a900473ffffffffffffffffffffffffffffffffffffffff16905090565b5f341161045f576040517f08c379a000000000000000000000000000000000000000000000000000000000815260040161045690610a3f565b60405180910390fd5b3460015f3373ffffffffffffffffffffffffffffffffffffffff1673ffffffffffffffffffffffffffffffffffffffff1681526020019081526020015f205f8282546104ab9190610a5d565b925050819055503373ffffffffffffffffffffffffffffffffffffffff167f543ba50a5eec5e6178218e364b1d0f396157b3c8fa278522c2cb7fd99407d474346040516104f891906106ed565b60405180910390a2565b61050a610586565b5f73ffffffffffffffffffffffffffffffffffffffff168173ffffffffffffffffffffffffffffffffffffffff160361057a575f6040517f1e4fbdf700000000000000000000000000000000000000000000000000000000815260040161057191906107f3565b60405180910390fd5b6105838161060d565b50565b61058e6106ce565b73ffffffffffffffffffffffffffffffffffffffff166105ac6103f6565b73ffffffffffffffffffffffffffffffffffffffff161461060b576105cf6106ce565b6040517f118cdaa700000000000000000000000000000000000000000000000000000000815260040161060291906107f3565b60405180910390fd5b565b5f805f9054906101000a900473ffffffffffffffffffffffffffffffffffffffff169050815f806101000a81548173ffffffffffffffffffffffffffffffffffffffff021916908373ffffffffffffffffffffffffffffffffffffffff1602179055508173ffffffffffffffffffffffffffffffffffffffff168173ffffffffffffffffffffffffffffffffffffffff167f8be0079c531659141344cd1fd0a4f28419497f9722a3daafe3b4186f6b6457e060405160405180910390a35050565b5f33905090565b5f819050919050565b6106e7816106d5565b82525050565b5f6020820190506107005f8301846106de565b92915050565b5f80fd5b610713816106d5565b811461071d575f80fd5b50565b5f8135905061072e8161070a565b92915050565b5f6020828403121561074957610748610706565b5b5f61075684828501610720565b91505092915050565b5f73ffffffffffffffffffffffffffffffffffffffff82169050919050565b5f6107888261075f565b9050919050565b6107988161077e565b81146107a2575f80fd5b50565b5f813590506107b38161078f565b92915050565b5f602082840312156107ce576107cd610706565b5b5f6107db848285016107a5565b91505092915050565b6107ed8161077e565b82525050565b5f6020820190506108065f8301846107e4565b92915050565b5f82825260208201905092915050565b7f416d6f756e74206d7573742062652067726561746572207468616e20300000005f82015250565b5f610850601d8361080c565b915061085b8261081c565b602082019050919050565b5f6020820190508181035f83015261087d81610844565b9050919050565b7f496e73756666696369656e742062616c616e63650000000000000000000000005f82015250565b5f6108b860148361080c565b91506108c382610884565b602082019050919050565b5f6020820190508181035f8301526108e5816108ac565b9050919050565b7f4e487b71000000000000000000000000000000000000000000000000000000005f52601160045260245ffd5b5f610923826106d5565b915061092e836106d5565b9250828203905081811115610946576109456108ec565b5b92915050565b5f81905092915050565b50565b5f6109645f8361094c565b915061096f82610956565b5f82019050919050565b5f61098382610959565b9150819050919050565b7f4661696c656420746f2073656e642045746865720000000000000000000000005f82015250565b5f6109c160148361080c565b91506109cc8261098d565b602082019050919050565b5f6020820190508181035f8301526109ee816109b5565b9050919050565b7f596f75206d7573742073656e6420736f6d6520657468657200000000000000005f82015250565b5f610a2960188361080c565b9150610a34826109f5565b602082019050919050565b5f6020820190508181035f830152610a5681610a1d565b9050919050565b5f610a67826106d5565b9150610a72836106d5565b9250828201905080821115610a8a57610a896108ec565b5b9291505056fea264697066735822122029f1391c282ef4ce0aa0bc2d26fb97299c65ddc1ab73066c11222be6cb265b3d64736f6c63430008180033","linkReferences":{}},"methodIdentifiers":{"balanceOf(address)":"70a08231","deposit()":"d0e30db0","getBalance()":"12065fe0","owner()":"8da5cb5b","renounceOwnership()":"715018a6","transferOwnership(address)":"f2fde38b","withdraw(uint256)":"2e1a7d4d"},"id":21}